:020000040800F2
:1000000000000220C5100008350D00083B0D000857
:10001000410D0008470D00084D0D000800000000CC
:100020000000000000000000000000002164000843
:10003000530D00080000000071660008D966000832
:1000400015110008151100081511000815110008F8
:1000500015110008151100081511000815110008E8
:1000600015110008151100081511000815110008D8
:1000700015110008151100081511000815110008C8
:1000800015110008151100081511000815110008B8
:1000900015110008151100081511000815110008A8
:1000A0001511000815110008151100081511000898
:1000B0001511000815110008151100081511000888
:1000C0001511000815110008151100081511000878
:1000D0001511000815110008610D00081511000820
:1000E0001511000815110008151100081511000858
:1000F0001511000815110008151100081511000848
:100100001511000815110008750D000815110008DB
:100110001511000815110008151100081511000827
:100120001511000815110008151100081511000817
:100130001511000800000000000000001511000863
:1001400015110008151100081511000815110008F7
:1001500015110008151100081511000815110008E7
:1001600015110008151100081511000815110008D7
:1001700015110008151100081511000800000000F5
:100180000000000015110008000000000000000041
:100190001511000800000000000000001511000803
:1001A0000000000000000000000000001511000821
:1001B0001511000815110008151100081511000887
:0401C000151100080D
:1001D00010B5054C237833B9044B13B10448AFF381
:1001E00000800123237010BD1800002000000000D3
:1001F0006C6C000808B5034B1BB103490348AFF30F
:10020000008008BD000000001C0000206C6C00088D
:1002100053B94AB9002908BF00281CBF4FF0FF316D
:100220004FF0FF3000F06EB9ADF1080C6DE904CE6F
:1002300000F006F8DDF804E0DDE9022304B07047C1
:100240002DE9F047089D04468C46002B40F0838042
:100250008A42174647D9B2FA82F242B1C2F120006F
:1002600024FA00F09140974040EA010C94404FEA94
:100270001748230CBCFBF8F61FFA87FE08FB16C1D3
:1002800043EA014306FB0EF1994209D9FB1806F136
:10029000FF3080F01981994240F21681023E3B44C2
:1002A0005B1AA4B2B3FBF8F008FB103344EA034432
:1002B00000FB0EFEA64509D93C1900F1FF3380F082
:1002C0000581A64540F2028102383C4440EA0640DE
:1002D000A4EB0E0400261DB1D4400023C5E9004361
:1002E0003146BDE8F08702B9FFDEB2FA82F2002A99
:1002F00050D1CB1B4FEA174E1FFA87F80126B3FBEC
:10030000FEFC210C0EFB1C3341EA034108FB0CF3FD
:100310008B4207D979180CF1FF3002D28B4200F2E0
:10032000E9808446C91AA3B2B1FBFEF00EFB10119E
:1003300043EA014408FB00F8A04507D93C1900F145
:10034000FF3302D2A04500F2D9801846A4EB08047E
:1003500040EA0C40BFE78B4209D9002D00F0B18084
:100360000026C5E9000130463146BDE8F087B3FA02
:1003700083F6002E4AD18B4202D3824200F2B8802B
:10038000841A61EB030101208C46002DA8D0C5E939
:10039000004CA5E7C2F1200320FA03F6974001FACA
:1003A00002F04FEA174ED9403043030CB1FBFEF682
:1003B0001FFA87F80EFB161143EA014306FB08F10A
:1003C000994204FA02F409D9FB1806F1FF3C80F0C7
:1003D0008D80994240F28A80023E3B445B1A81B292
:1003E000B3FBFEF00EFB103341EA034100FB08F3C0
:1003F0008B4207D9791800F1FF3C73D28B4271D937
:1004000002383944CB1A40EA064678E7C6F1200C98
:1004100003FA06F422FA0CF31C4320FA0CF701FA53
:1004200006F34FEA144E21FA0CF11F433B0CB1FBCB
:10043000FEF91FFA84F80EFB191143EA014109FB8A
:1004400008FA8A4502FA06F200FA06F308D961189A
:1004500009F1FF3048D28A4546D9A9F10209214461
:10046000A1EB0A01BFB2B1FBFEF00EFB101147EA8F
:10047000014700FB08F8B84507D9E71900F1FF313B
:100480002ED2B8452CD90238274440EA0940A7EBC0
:100490000807A0FB02894F45C64649461AD317D024
:1004A0005DB1B3EB0E0267EB010707FA0CFCF240FB
:1004B0004CEA0202F740C5E9002700263146BDE8B4
:1004C000F0872E4628460BE70646E9E61846FDE685
:1004D0004345E5D2B8EB020E69EB04010138DFE7D2
:1004E0000846D2E760468DE78146B9E7664675E77C
:1004F00030464AE7ACF1020C394413E702383C4479
:1005000024E700BF704700BF80B400AF00BFBD4606
:100510005DF8047B704780B483B000AF786000BFA3
:100520000C37BD465DF8047B7047000080B58AB08B
:1005300002AF00F0F1FD00F019F900F0D9F900F078
:1005400087F900F0ABF9714B1B68704A43F0010367
:1005500013606F4B0193022300930023FA226D492D
:100560006D4804F01BFB03466C4A13606B4B1B6821
:10057000012B0AD04FF0500383F31188BFF36F8F24
:10058000BFF34F8FBB6100BFFEE7654B01930223B2
:1005900000930023FA226349634804F0FFFA0346FC
:1005A0005E4A13605D4B1B68012B0AD04FF050036D
:1005B00083F31188BFF36F8FBFF34F8F7B6100BF51
:1005C000FEE75A4B0193022300930023FA22584975
:1005D000584804F0E3FA0346504A13604F4B1B6837
:1005E000012B0AD04FF0500383F31188BFF36F8FB4
:1005F000BFF34F8F3B6100BFFEE74F4B01930223D8
:1006000000930023FA224D494D4804F0C7FA0346EF
:10061000424A1360414B1B68012B0AD04FF0500334
:1006200083F31188BFF36F8FBFF34F8FFB6000BF61
:10063000FEE7444B0193022300930023FA22424930
:10064000424804F0ABFA0346344A1360334B1B684C
:10065000012B0AD04FF0500383F31188BFF36F8F43
:10066000BFF34F8FBB6000BFFEE7002201210A20CD
:1006700003F034FD0346364A1360354B1B68002BEC
:100680000AD14FF0500383F31188BFF36F8FBFF38C
:100690004F8F7B6000BFFEE7002204210A2003F099
:1006A0001DFD03462B4A1360294B1B68002B0AD102
:1006B0004FF0500383F31188BFF36F8FBFF34F8F59
:1006C0003B6000BFFEE70023FB6113E0FB690133E1
:1006D0001A46214B0093134601224FF4FA711F482A
:1006E00005F074FB02461E49FB6941F82320FB69B3
:1006F0000133FB61FB69032BE8DD012219491A482C
:1007000002F02DFD04F0C4FBFEE700BF001000E086
:100710002C2E0120846C0008AD0D0008342E012021
:10072000BC2D0120906C0008850E0008E42D0120EE
:100730009C6C0008B50E0008B42D0120A86C0008C0
:10074000D50E0008E02D0120B46C0008B90F000898
:10075000B02D0120302E0120B50A0008C06C000821
:10076000A02D0120B82D0120E82D012080B594B0E6
:1007700000AF07F11C0334220021184606F06EFA80
:1007800007F1080300221A605A609A60DA601A6161
:1007900000237B602C4B1B6C2B4A43F0805313646B
:1007A000294B1B6C03F080537B607B6800233B600C
:1007B000264B1B6823F44043244A43F480431360D0
:1007C000224B1B6803F440433B603B680A23FB61F8
:1007D00000237B620123BB621023FB6201233B6386
:1007E00002237B630023BB631023FB634FF4A873D6
:1007F0003B6404237B640223BB640223FB6407F194
:100800001C03184601F02EFE0346002B01D000F019
:100810008FF90F23BB600223FB6000233B614FF481
:1008200080537B610023BB6107F108030221184656
:1008300000F0F0FF0346002B01D000F079F900BF73
:100840005037BD4680BD00BF0038024000700040F8
:1008500080B500AF0F4B104A1A600E4B40225A6011
:100860000C4B7F229A600B4BFF22DA60094B00226F
:100870001A61084B00225A61064B00229A61054812
:1008800002F08EF80346002B01D000F051F900BFB2
:1008900080BD00BFC02D01200028004080B500AF02
:1008A000114B124A1A60104B4FF4E1325A600E4B52
:1008B00000229A600C4B0022DA600B4B00221A6176
:1008C000094B0C225A61084B00229A61064B002208
:1008D000DA61054802F0F6FB0346002B01D000F078
:1008E00027F900BF80BD00BFE82D01200044004073
:1008F00080B58AB000AF07F1140300221A605A6075
:100900009A60DA601A6100233B61414B1B6B404ADD
:1009100043F0040313633E4B1B6B03F004033B6182
:100920003B690023FB603A4B1B6B394A43F0800361
:100930001363374B1B6B03F08003FB60FB680023E2
:10094000BB60334B1B6B324A43F001031363304BE4
:100950001B6B03F00103BB60BB6800237B602C4B67
:100960001B6B2B4A43F002031363294B1B6B03F0F1
:1009700002037B607B6800224FF40871254800F079
:1009800015FF00228021244800F010FF00224021A2
:10099000224800F00BFF4FF400537B614FF4041327
:1009A000BB610023FB6107F1140319461A4800F0EC
:1009B00069FD4FF408737B610123BB610023FB6178
:1009C00000233B6207F114031946124800F05AFD58
:1009D00080237B610123BB610023FB6100233B6219
:1009E00007F1140319460C4800F04CFD40237B61CD
:1009F0000123BB610023FB6100233B6207F1140369
:100A00001946064800F03EFD00BF2837BD4680BDB0
:100A1000003802400000024000080240000402408A
:100A200080B586B002AF78601D4B1B68184604F095
:100A30000CF8F860FB68012B07D1194B18680023EC
:100A40000022184903F0BAFC25E0164B1B78DBB2F4
:100A50001A46154B9A4219D1114B1B6807F10B012D
:100A60000022184603F034FE0D4B186800230022C4
:100A70000C4903F0A3FC0D4B1868002301930023DD
:100A8000009300230022002105F006F80122054909
:100A9000074802F064FB00BF1037BD4680BD00BFB1
:100AA000B02D0120B82D0120CC6C0008BC2D0120F8
:100AB000E82D012080B584B000AF7860786805F03B
:100AC0002FFC0346FB60FB68013B032B1AD801A2F5
:100AD00052F823F0E50A0008ED0A0008F50A0008BC
:100AE000FD0A00080120FFF716FD0BE00220FFF7CA
:100AF00012FD07E00320FFF70EFD03E00420FFF7DF
:100B00000AFD00BF00BF1037BD4680BD80B582B072
:100B100000AF78607B681B68044A934201D100F003
:100B20001DFB00BF0837BD4680BD00BF000C004064
:100B300080B400AF72B600BFFEE7000080B483B09F
:100B400000AF00237B60104B5B6C0F4A43F4804383
:100B500053640D4B5B6C03F480437B607B68002324
:100B60003B60094B1B6C084A43F080531364064BEF
:100B70001B6C03F080533B603B6800BF0C37BD46E5
:100B80005DF8047B704700BF0038024080B59AB022
:100B900000AF786007F10C035C220021184606F0D4
:100BA0005DF87B681B680C4A934211D12023FB60DF
:100BB0004FF40073FB6407F10C03184600F076FF56
:100BC0000346002B01D0FFF7B3FF044B01221A604C
:100BD00000BF6837BD4680BD002800403C0E47423C
:100BE00080B58AB000AF786007F1140300221A6064
:100BF0005A609A60DA601A617B681B681D4A9342EA
:100C000033D100233B611C4B1B6C1B4A43F4003364
:100C10001364194B1B6C03F400333B613B690023E5
:100C2000FB60154B1B6B144A43F001031363124B1B
:100C30001B6B03F00103FB60FB680C237B61022349
:100C4000BB610023FB6103233B6207237B6207F147
:100C500014031946094800F015FC00220021262043
:100C600000F054FB262000F06DFB00BF2837BD4686
:100C700080BD00BF00440040003802400000024038
:100C800080B58CB000AF78600023FB620023BB62AC
:100C900000227968322000F039FB322000F052FB4C
:100CA0000023FB601F4B1B6C1E4A43F008031364B8
:100CB0001C4B1B6C03F00803FB60FB6807F1100280
:100CC00007F114031146184600F0BEFE00F094FE32
:100CD00003465B00FB62FB6A134AA2FB03239B0CE7
:100CE000013BBB62114B124A1A60104B40F2E732D3
:100CF000DA600E4ABB6A53600C4B00221A610B4B40
:100D000000229A60094801F030FF0346002B04D10D
:100D1000064801F083FF034600E001231846303700
:100D2000BD4680BD0038024083DE1B43382E0120C3
:100D3000000C004080B400AFFEE780B400AFFEE7D7
:100D400080B400AFFEE780B400AFFEE780B400AF30
:100D5000FEE780B400AF00BFBD465DF8047B70477E
:100D600080B500AF024802F02BFA00BF80BD00BF83
:100D7000E82D012080B500AF024801F0BFFF00BFA1
:100D800080BD00BF382E012080B400AF064BD3F8E1
:100D90008830054A43F47003C2F8883000BFBD466E
:100DA0005DF8047B704700BF00ED00E080B588B0BF
:100DB00002AF78602E4BBB602E4B186807F108011C
:100DC00000234FF0FF3203F0FBF907F10C034FF063
:100DD000FF32009200220021002004F0FDFCFB689D
:100DE0007B617B69DB68012B2DD17B691B78303BF4
:100DF0003B613B69022B2FD03B69022B1ADC3B691C
:100E0000002B03D03B69012B0AD013E01A4B186862
:100E10000023009300230022002104F05DFD1CE06C
:100E2000164B18680023009300230022002104F0D1
:100E300053FD12E00F4B186800234FF0FF321049AA
:100E400003F0BEF912E00B4B186800234FF0FF329D
:100E50000B4903F0B5F900E000BF4FF0FF330093FA
:100E6000002300220021002004F0B6FCA4E700BF0C
:100E7000E86C0008302E0120B42D0120E02D012067
:100E80000400002080B58AB002AF78604FF0FF33D5
:100E90000093002300220021002004F09DFCF86153
:100EA000FB69012BF2D107F10C03184600F094F80E
:100EB000ECE7000080B582B000AF78608021044884
:100EC00000F08DFC4FF4FA7003F0AEFFF6E700BFC0
:100ED0000008024080B588B002AF7860314BBB603B
:100EE0004FF0FF330093002300220021002004F084
:100EF00073FC2D4B186807F1080100234FF0FF32F7
:100F000003F05EF907F10C034FF0FF32009200226C
:100F10000021002004F060FCFB687B617B69DB68DA
:100F2000012B2AD17B691B78303B3B613B69042B49
:100F30001AD801A252F823F04D0F0008510F0008F3
:100F4000570F00085D0F0008630F0008FFF7DCFA79
:100F50000120FFF7E0FA0220FFF7DDFA0320FFF798
:100F6000DAFA0420FFF7D7FA0F4B186800234FF086
:100F7000FF320E4903F024F907E00B4B18680023F9
:100F80004FF0FF32094903F01BF9094B00221A7098
:100F9000084B18680023009300230022002104F06E
:100FA0009BFC9DE7706D0008302E0120040000209E
:100FB000340000202C2E012080B582B000AF786074
:100FC0008021044800F00BFC4FF4FA7003F02CFF72
:100FD000F6E700BF0008024080B584B002AF786039
:100FE000786800F035F8164B1B78052B24DC022BB3
:100FF00018DA002B02D0012B0AD01DE0114B186823
:101000007A68002300930323002104F065FC13E0B9
:101010000D4B18687A68002300930323002104F025
:101020005BFC09E0094B18687A68002300930323EE
:10103000002104F051FC00BF00BF0837BD4680BD51
:10104000340000202C2E0120B42D0120E02D0120A1
:1010500080B586B000AF78600023FB730023FB757A
:10106000174B1B68184603F0C2FB03463B613B6904
:10107000002B00D1FEE7124B1B6807F10F01002285
:10108000184603F045FA38613B69012B06D1FB7D18
:101090005A1CFA751A46F97B7B689954FB7B0A2B1C
:1010A000E9D1FB7D013B7A680021D154FB7D013BF6
:1010B0001A467B68DA6000BF1837BD4680BD00BFA6
:1010C000B02D0120DFF834D00D480E490E4A002320
:1010D00002E0D458C4500433C4188C42F9D30B4AEC
:1010E0000B4C002301E013600432A242FBD3FFF754
:1010F0004BFE05F081FDFFF719FA70470000022052
:101100000000002018000020586E00081800002081
:10111000C42E0120FEE7000080B500AF0E4B1B6817
:101120000D4A43F4007313600B4B1B680A4A43F4E7
:1011300080631360084B1B68074A43F48073136095
:10114000032000F0D8F80020FFF79AFDFFF7F6FC27
:101150000023184680BD00BF003C024080B400AFB1
:10116000064B1B781A46064B1B681344044A13604F
:1011700000BFBD465DF8047B704700BF0C00002037
:10118000802E012080B400AF034B1B681846BD467B
:101190005DF8047B704700BF802E012080B485B0CD
:1011A00000AF78607B6803F00703FB600C4BDB68E3
:1011B000BB60BA684FF6FF031340BB60FB681A02BE
:1011C000BB68134343F0BF6343F40033BB60044A7E
:1011D000BB68D36000BF1437BD465DF8047B704721
:1011E00000ED00E080B400AF044BDB681B0A03F0A5
:1011F00007031846BD465DF8047B704700ED00E02C
:1012000080B483B000AF0346FB7197F90730002B21
:101210000BDBFB7903F01F02074997F907305B09E5
:10122000012000FA02F241F8232000BF0C37BD462E
:101230005DF8047B704700BF00E100E080B483B03C
:1012400000AF03463960FB7197F90730002B0ADBCA
:101250003B68DAB20C4997F907301201D2B20B445D
:1012600083F800230AE03B68DAB20849FB7903F00F
:101270000F03043B1201D2B20B441A7600BF0C37A5
:10128000BD465DF8047B704700E100E000ED00E042
:1012900080B489B000AFF860B9607A60FB6803F091
:1012A0000703FB61FB69C3F10703042B28BF042379
:1012B000BB61FB690433062B02D9FB69033B00E0E9
:1012C00000237B614FF0FF32BB6902FA03F3DA437C
:1012D000BB681A407B699A404FF0FF317B6901FA85
:1012E00003F3D9437B680B40134318462437BD46AC
:1012F0005DF8047B704780B582B000AF7860786895
:10130000FFF74CFF00BF0837BD4680BD80B586B0F3
:1013100000AF0346B9607A60FB7300237B61FFF77F
:1013200061FF78617A68B9687869FFF7B1FF0246B2
:1013300097F90F3011461846FFF780FF00BF1837A6
:10134000BD4680BD80B582B000AF0346FB7197F902
:1013500007301846FFF754FF00BF0837BD4680BD71
:1013600080B584B000AF78607B689B6DFB60FFF751
:1013700009FFB8607B6893F83530DBB2022B08D0E8
:101380007B6880225A657B68002283F83420012321
:1013900052E07B681B681A687B681B6822F01602A3
:1013A0001A607B681B685A697B681B6822F08002A0
:1013B0005A617B681B6C002B03D17B689B6C002BF4
:1013C00007D07B681B681A687B681B6822F00802DC
:1013D0001A607B681B681A687B681B6822F0010230
:1013E0001A6013E0FFF7CEFE0246BB68D31A052B46
:1013F0000CD97B6820225A657B68032283F835204C
:101400007B68002283F83420032315E07B681B6887
:101410001B6803F00103002BE4D17B68DB6D3F22E6
:101420009A40FB689A607B68012283F835207B68CC
:10143000002283F83420002318461037BD4680BDB3
:1014400080B483B000AF78607B6893F83530DBB24E
:10145000022B04D07B6880225A6501230CE07B6854
:10146000052283F835207B681B681A687B681B6837
:1014700022F001021A60002318460C37BD465DF8C1
:10148000047B704780B489B000AF78603960002376
:101490007B6100233B610023BB610023FB6165E1AD
:1014A0000122FB6902FA03F37B613B681B687A69DE
:1014B00013403B613A697B699A4240F054813B6832
:1014C0005B6803F00303012B05D03B685B6803F006
:1014D0000303022B30D17B689B68BB61FB695B0017
:1014E000032202FA03F3DB43BA691340BB613B6892
:1014F000DA68FB695B0002FA03F3BA691343BB6164
:101500007B68BA699A607B685B68BB610122FB6992
:1015100002FA03F3DB43BA691340BB613B685B68C3
:101520001B0903F00102FB6902FA03F3BA691343D2
:10153000BB617B68BA695A603B685B6803F0030370
:10154000032B17D07B68DB68BB61FB695B00032260
:1015500002FA03F3DB43BA691340BB613B689A6844
:10156000FB695B0002FA03F3BA691343BB617B6852
:10157000BA69DA603B685B6803F00303022B23D18E
:10158000FB69DA087B68083253F82230BB61FB69DB
:1015900003F007039B000F2202FA03F3DB43BA694F
:1015A0001340BB613B681A69FB6903F007039B00AA
:1015B00002FA03F3BA691343BB61FB69DA087B687B
:1015C0000832B96943F822107B681B68BB61FB696C
:1015D0005B00032202FA03F3DB43BA691340BB61E9
:1015E0003B685B6803F00302FB695B0002FA03F3EC
:1015F000BA691343BB617B68BA691A603B685B6870
:1016000003F44033002B00F0AE800023FB605D4B01
:101610005B6C5C4A43F4804353645A4B5B6C03F449
:101620008043FB60FB68584AFB699B08023352F811
:101630002330BB61FB6903F003039B000F2202FA16
:1016400003F3DB43BA691340BB617B684F4A9342A3
:1016500025D07B684E4A93421FD07B684D4A934207
:1016600019D07B684C4A934213D07B684B4A934213
:101670000DD07B684A4A934207D07B68494A93421F
:1016800001D106230CE007230AE0052308E0042328
:1016900006E0032304E0022302E0012300E000232C
:1016A000FA6902F0030292009340BA691343BB61E6
:1016B0003549FB699B080233BA6941F823203A4B4C
:1016C0001B68BB613B69DB43BA691340BB613B6884
:1016D0005B6803F48033002B03D0BA693B69134382
:1016E000BB61314ABB6913602F4B5B68BB613B69CF
:1016F000DB43BA691340BB613B685B6803F40033AA
:10170000002B03D0BA693B691343BB61264ABB690E
:101710005360254B9B68BB613B69DB43BA6913404F
:10172000BB613B685B6803F48013002B03D0BA698C
:101730003B691343BB611C4ABB6993601A4BDB686E
:10174000BB613B69DB43BA691340BB613B685B68C3
:1017500003F40013002B03D0BA693B691343BB6148
:10176000114ABB69D360FB690133FB61FB690F2B35
:101770007FF696AE00BF00BF2437BD465DF8047B00
:10178000704700BF003802400038014000000240AE
:101790000004024000080240000C02400010024019
:1017A0000014024000180240003C014080B483B0A5
:1017B00000AF78600B467B8013467B707B78002BF4
:1017C00003D07A887B689A6103E07B881A047B687F
:1017D0009A6100BF0C37BD465DF8047B704780B44A
:1017E00085B000AF78600B467B807B685B69FB60EF
:1017F0007A88FB6813401A04FB68D9437B880B4046
:101800001A437B689A6100BF1437BD465DF8047BBC
:101810007047000080B584B000AF786039607B68A5
:10182000002B01D10123CCE0684B1B6803F00F03B0
:101830003A689A420CD9654B3A68D2B21A70634B37
:101840001B6803F00F033A689A4201D00123B8E005
:101850007B681B6803F00203002B20D07B681B68A9
:1018600003F00403002B05D0594B9B68584A43F4FE
:10187000E05393607B681B6803F00803002B05D0DE
:10188000534B9B68524A43F460439360504B9B68B0
:1018900023F0F0027B689B684D4913438B607B68A3
:1018A0001B6803F00103002B44D07B685B68012BAD
:1018B00007D1474B1B6803F40033002B19D10123D8
:1018C0007FE07B685B68022B03D07B685B68032B3F
:1018D00007D13F4B1B6803F00073002B09D1012394
:1018E0006FE03B4B1B6803F00203002B01D1012387
:1018F00067E0374B9B6823F003027B685B683449E1
:1019000013438B60FFF73EFCF8600AE0FFF73AFCF8
:101910000246FB68D31A41F28832934201D903236D
:101920004FE02B4B9B6803F00C027B685B689B00CD
:101930009A42EBD1254B1B6803F00F033A689A4299
:101940000CD2224B3A68D2B21A70204B1B6803F0BB
:101950000F033A689A4201D0012332E07B681B688A
:1019600003F00403002B08D0194B9B6823F4E052CA
:101970007B68DB68164913438B607B681B6803F048
:101980000803002B09D0124B9B6823F460427B684C
:101990001B69DB000E4913438B6000F0B1FB02466C
:1019A0000B4B9B681B0903F00F030A49CB5C22FA1F
:1019B00003F3094A1360094B1B681846FFF760F9E7
:1019C000002318461037BD4680BD00BF003C0240D2
:1019D00000380240306E000800000020080000209F
:1019E00080B400AF034B1B681846BD465DF8047B0E
:1019F000704700BF0000002080B500AFFFF7F0FF88
:101A00000246054B9B689B0A03F007030349CB5C26
:101A100022FA03F3184680BD00380240406E0008E9
:101A200080B500AFFFF7DCFF0246054B9B685B0B00
:101A300003F007030349CB5C22FA03F3184680BD89
:101A400000380240406E000880B483B000AF786078
:101A500039607B680F221A60124B9B6803F0030207
:101A60007B685A600F4B9B6803F0F0027B689A60BA
:101A70000C4B9B6803F4E0527B68DA60094B9B686F
:101A8000DB0803F4E0527B681A61074B1B6803F024
:101A90000F023B681A6000BF0C37BD465DF8047B3F
:101AA000704700BF00380240003C024080B58CB057
:101AB00000AF786000237B6200233B620023FB6160
:101AC0000023BB6100237B6100233B610023FB609B
:101AD0000023FB620023BB627B681B6803F00103E9
:101AE000002B10D06F4BD3F88C3023F0C0627B6892
:101AF0009B6B6C491343C1F88C307B689B6B002B4C
:101B000001D10123FB627B681B6803F00203002BF9
:101B100010D0644BD3F88C3023F0C0527B68DB6B61
:101B200060491343C1F88C307B68DB6B002B01D11B
:101B30000123FB627B681B6803F00403002B17D0B2
:101B4000584BD3F88C3023F440127B681B6B5549FB
:101B50001343C1F88C307B681B6BB3F5801F01D138
:101B60000123FB627B681B6B002B01D10123BB624D
:101B70007B681B6803F00803002B17D0494BD3F890
:101B80008C3023F440027B685B6B46491343C1F8F9
:101B90008C307B685B6BB3F5800F01D10123FB6256
:101BA0007B685B6B002B01D10123BB627B681B68E8
:101BB00003F02003002B00F08A800023BB60394B28
:101BC0001B6C384A43F080531364364B1B6C03F094
:101BD0008053BB60BB68344B1B68334A43F480734B
:101BE0001360FFF7CFFA786208E0FFF7CBFA0246FE
:101BF0007B6AD31A022B01D9032378E22A4B1B6894
:101C000003F48073002BF0D0264B1B6F03F440735A
:101C10003B623B6A002B2FD07B681B6C03F4407344
:101C20003A6A9A4228D01F4B1B6F23F440733B62E1
:101C30001E4B01221A601D4B00221A60194A3B6A92
:101C40001367184B1B6F03F00103012B14D1FFF72F
:101C500099FA78620AE0FFF795FA02467B6AD31A8E
:101C600041F28832934201D9032340E20D4B1B6FAE
:101C700003F00203002BEED07B681B6C03F440736F
:101C8000B3F5407F14D1074B9B6823F4F8127B68AF
:101C90001B6C23F0704323F44073024913438B60A1
:101CA0000CE000BF0038024000700040400E474288
:101CB0004A4B9B68494A23F4F8139360474B1A6FC9
:101CC0007B681B6CC3F30B03444913430B677B68AE
:101CD0001B6803F01003002B04D07B6893F8582096
:101CE0003F4B1A607B681B6803F08003002B0AD00F
:101CF0003A4BD3F8943023F440027B68DB6C3749CD
:101D00001343C1F894307B681B6803F04003002B39
:101D10000AD0324BD3F8943023F080627B689B6CFE
:101D20002E491343C1F894307B681B6803F4807319
:101D3000002B11D0294BD3F8943023F000627B683C
:101D40005B6D26491343C1F894307B685B6DB3F13A
:101D5000006F01D10123BB627B681B6803F4007331
:101D6000002B0AD01D4BD3F8943023F080527B68AF
:101D70005B6C1A491343C1F894307B681B6803F409
:101D80008063002B11D0154BD3F8943023F0005210
:101D90007B681B6D11491343C1F894307B681B6D40
:101DA000B3F1005F01D10123FB62FB6A012B05D077
:101DB0007B681B68B3F5006F40F0FF80094B002281
:101DC0001A60FFF7DFF978620EE0FFF7DBF90246F1
:101DD0007B6AD31A022B07D9032388E1003802401B
:101DE000E0114742680047427E4B1B6803F00063E6
:101DF000002BEAD17B681B6803F00103002B03D0A2
:101E00007B689B6B002B09D07B681B6803F0020387
:101E1000002B28D07B68DB6B002B24D1714BD3F8CF
:101E200084301B0C03F0030301335B00FB616D4B3B
:101E3000D3F884301B0E03F00F03BB617B685A6834
:101E40007B689B689B011A43FB695B08013B1B0491
:101E50001A43BB691B061A437B685B691B07614910
:101E60001343C1F884307B681B6803F00403002B24
:101E700004D07B681B6BB3F5801F0AD07B681B689E
:101E800003F00803002B35D07B685B6BB3F5800F44
:101E900030D1544BD3F884301B0C03F003030133CF
:101EA0005B00FB614F4BD3F884301B0F03F007033B
:101EB0007B617B685A687B689B689B011A43FB695E
:101EC0005B08013B1B041A437B681B691B061A4312
:101ED0007B691B0743491343C1F88430414BD3F856
:101EE0008C3023F01F027B689B6A013B3D49134302
:101EF000C1F88C307B681B6803F48063002B29D009
:101F00007B681B6DB3F1005F24D1364BD3F884306E
:101F10001B0C03F0030301335B00BB61314BD3F8AF
:101F200084301B0F03F007037B617B685A687B6872
:101F30009B689B011A437B68DB685B08013B1B04C1
:101F40001A43BB691B061A437B691B0725491343C8
:101F5000C1F884307B681B6803F40063002B16D043
:101F60007B685A687B689B689B011A437B68DB68C7
:101F70005B08013B1B041A437B681B691B061A4361
:101F80007B685B691B0717491343C1F88430164B04
:101F900001221A60FFF7F6F8786208E0FFF7F2F81E
:101FA00002467B6AD31A022B01D903239FE00D4B13
:101FB0001B6803F00063002BF0D0BB6A012B40F0DC
:101FC00095800A4B00221A60FFF7DCF878620FE078
:101FD000FFF7D8F802467B6AD31A022B08D90323ED
:101FE00085E000BF00380240680047427000474269
:101FF000414B1B6803F00053B3F1005FE8D07B68EE
:102000001B6803F00403002B03D07B681B6B002BC1
:1020100009D07B681B6803F00803002B2BD07B687A
:102020005B6B002B27D1344BD3F888301B0C03F0AB
:10203000030301335B003B617B689A697B68DB6962
:102040009B011A433B695B08013B1B041A437B68F5
:102050005B6A1B0628491343C1F88830264BD3F826
:102060008C3023F4F8527B68DB6A013B1B02224967
:102070001343C1F88C307B681B6803F48073002B1A
:102080001DD07B685B6DB3F1006F18D11A4BD3F88C
:1020900088301B0E03F00F03FB607B689A697B6836
:1020A000DB699B011A437B681B6A5B08013B1B04CD
:1020B0001A43FB681B0610491343C1F888300F4BC5
:1020C00001221A60FFF75EF8786208E0FFF75AF81D
:1020D00002467B6AD31A022B01D9032307E0064B81
:1020E0001B6803F00053B3F1005FEFD100231846E3
:1020F0003037BD4680BD00BF003802407000474207
:102100002DE9B04F88B000AF00237B610023FB6155
:1021100000233B610023FB600023BB61CE4B9B6827
:1021200003F00C030C2B00F28D8101A252F823F076
:1021300065210008452400084524000845240008BE
:102140006B210008452400084524000845240008A8
:102150007121000845240008452400084524000892
:10216000E5220008BD4BBB616FE1BD4BBB616CE17B
:10217000B94B5B6803F03F037B61B74B5B6803F4CB
:102180008003002B53D0B44B5B689B091A464FF079
:10219000000340F2FF104FF0000102EA00043C602F
:1021A0000B407B60D7E90045204629464FF00002EE
:1021B0004FF000034B0143EAD06342011046194639
:1021C0002346C01A2B4661EB03014FF000024FF08B
:1021D00000038B0143EA90638201121A63EB01034F
:1021E0004FF000004FF00001D90041EA5271D000D9
:1021F00002460B4621465218294643EB01010B4685
:102200004FF000004FF00001590241EAD251500254
:1022100002460B46104619467B691A464FF00003EA
:10222000FDF7F6FF02460B461346FB614CE08A4B76
:102230005B689B091A464FF0000340F2FF104FF015
:10224000000102EA000A03EA010B504659464FF02A
:1022500000024FF000034B0143EAD06342011046F5
:102260001946B0EB0A0061EB0B014FF000024FF092
:1022700000038B0143EA90638201121A63EB0103AE
:102280004FF000004FF00001D90041EA5271D00038
:1022900002460B4612EB0A0243EB0B034FF0000021
:1022A0004FF00001990241EA9251900202460B461A
:1022B000104619467B691A464FF00003FDF7A8FF48
:1022C00002460B461346FB61634B5B681B0C03F035
:1022D000030301335B003B61FA693B69B2FBF3F333
:1022E000BB61B2E05C4B5B6803F03F037B615A4B20
:1022F0005B6803F48003002B4DD0574B5B689B0950
:102300001A464FF0000340F2FF104FF0000102EABE
:10231000000803EA0109404649464FF000024FF029
:1023200000034B0143EAD063420110461946B0EB6B
:10233000080061EB09014FF000024FF000038B0130
:1023400043EA90638201121A63EB01034FF000002D
:102350004FF00001D90041EA5271D00002460B460D
:1023600012EB080243EB09034FF000004FF00001AD
:10237000590241EAD251500202460B461046194614
:102380007B691A464FF00003FDF742FF02460B46F9
:102390001346FB614AE0304B5B689B091A464FF0DD
:1023A000000340F2FF104FF0000102EA000403EACC
:1023B0000105204629464FF000024FF000034B0173
:1023C00043EAD063420110461946001B61EB050148
:1023D0004FF000024FF000038B0143EA906382014B
:1023E000121A63EB01034FF000004FF00001D90017
:1023F00041EA5271D00002460B46121945EB030325
:102400004FF000004FF00001990241EA9251900212
:1024100002460B46104619467B691A464FF00003E8
:10242000FDF7F6FE02460B461346FB610A4B5B685E
:102430001B0F03F00703FB60FA69FB68B2FBF3F3C1
:10244000BB6102E0054BBB6100BFBB69184620378A
:10245000BD46BDE8B08F00BF003802400024F40044
:1024600000127A0080B586B000AF78607B68002BE0
:1024700001D101238DE27B681B6803F00103002B6F
:1024800000F08380944B9B6803F00C03042B19D05D
:10249000914B9B6803F00C03082B06D18E4B5B68B5
:1024A00003F48003B3F5800F0CD08B4B9B6803F0D3
:1024B0000C030C2B12D1884B5B6803F48003B3F53B
:1024C000800F0BD1844B1B6803F40033002B5BD0CF
:1024D0007B685B68002B57D101235AE27B685B68FD
:1024E000B3F5803F06D17C4B1B687B4A43F48033B5
:1024F00013601DE07B685B68B3F5A02F0CD1764BB1
:102500001B68754A43F480231360734B1B68724A3F
:1025100043F4803313600BE06F4B1B686E4A23F467
:10252000803313606C4B1B686B4A23F48023136069
:102530007B685B68002B13D0FEF724FE386108E04F
:10254000FEF720FE02463B69D31A642B01D9032310
:102550001FE2614B1B6803F40033002BF0D014E042
:10256000FEF710FE386108E0FEF70CFE02463B69FC
:10257000D31A642B01D903230BE2574B1B6803F4D6
:102580000033002BF0D100E000BF7B681B6803F034
:102590000203002B6FD0504B9B6803F00C03002B01
:1025A00017D04D4B9B6803F00C03082B05D14A4B09
:1025B0005B6803F48003002B0BD0474B9B6803F050
:1025C0000C030C2B1CD1444B5B6803F48003002BE1
:1025D00016D1414B1B6803F00203002B05D07B682A
:1025E000DB68012B01D00123D3E13B4B1B6823F0B7
:1025F000F8027B681B69DB00374913430B603AE044
:102600007B68DB68002B20D0344B01221A60FEF778
:10261000B9FD386108E0FEF7B5FD02463B69D31A03
:10262000022B01D90323B4E12B4B1B6803F00203F7
:10263000002BF0D0284B1B6823F0F8027B681B6945
:10264000DB00254913430B6015E0244B00221A6080
:10265000FEF798FD386108E0FEF794FD02463B69FD
:10266000D31A022B01D9032393E11B4B1B6803F000
:102670000203002BF0D17B681B6803F00803002BDA
:1026800036D07B685B69002B16D0154B01221A608F
:10269000FEF778FD386108E0FEF774FD02463B69FD
:1026A000D31A022B01D9032373E10B4B5B6F03F0A9
:1026B0000203002BF0D01BE0094B00221A60FEF74A
:1026C00061FD38610EE0FEF75DFD02463B69D31AFD
:1026D000022B07D903235CE1003802400000474287
:1026E000800E47428A4B5B6F03F00203002BEAD156
:1026F0007B681B6803F00403002B00F09780002325
:10270000FB75834B1B6C03F08053002B0FD1002310
:10271000BB607F4B1B6C7E4A43F0805313647C4B41
:102720001B6C03F08053BB60BB680123FB75794BC6
:102730001B6803F48073002B18D1764B1B68754A15
:1027400043F480731360FEF71DFD386108E0FEF767
:1027500019FD02463B69D31A022B01D9032318E164
:102760006C4B1B6803F48073002BF0D07B689B6874
:10277000012B06D1664B1B6F654A43F001031367BB
:102780001CE07B689B68052B0CD1614B1B6F604A7A
:1027900043F0040313675E4B1B6F5D4A43F0010374
:1027A00013670BE05A4B1B6F594A23F00103136761
:1027B000574B1B6F564A23F0040313677B689B68D3
:1027C000002B15D0FEF7DEFC38610AE0FEF7DAFCDC
:1027D00002463B69D31A41F28832934201D903235E
:1027E000D7E04B4B1B6F03F00203002BEED014E03D
:1027F000FEF7C8FC38610AE0FEF7C4FC02463B69FC
:10280000D31A41F28832934201D90323C1E0404BED
:102810001B6F03F00203002BEED1FB7D012B05D1D2
:102820003B4B1B6C3A4A23F0805313647B689B69D3
:10283000002B00F0AD80364B9B6803F00C03082B97
:1028400060D07B689B69022B45D1334B00221A6014
:10285000FEF798FC386108E0FEF794FC02463B69FD
:10286000D31A022B01D9032393E0294B1B6803F0F1
:102870000073002BF0D17B68DA697B681B6A1A430E
:102880007B685B6A9B011A437B689B6A5B08013B20
:102890001B041A437B68DB6A1B061A437B681B6BAD
:1028A0001B071B4913434B601B4B01221A60FEF7A9
:1028B00069FC386108E0FEF765FC02463B69D31A03
:1028C000022B01D9032364E0114B1B6803F0007352
:1028D000002BF0D05CE0104B00221A60FEF752FC97
:1028E000386108E0FEF74EFC02463B69D31A022B22
:1028F00001D903234DE0064B1B6803F00073002B46
:10290000F0D145E07B689B69012B07D1012340E0B2
:102910000038024000700040600047421F4B5B6877
:10292000FB607B689B69012B30D0FB6803F480025D
:102930007B68DB699A4229D1FB6803F03F027B6820
:102940001B6A9A4222D1FA6847F6C07313407A682C
:10295000526A9201934219D1FB6803F440327B68BA
:102960009B6A5B08013B1B049A420FD1FB6803F092
:1029700070627B68DB6A1B069A4207D1FB6803F032
:10298000E0427B681B6B1B079A4201D0012300E0E9
:10299000002318461837BD4680BD00BF00380240EE
:1029A00080B582B000AF78607B68002B01D1012335
:1029B00083E07B685B7FDBB2002B05D17B68002264
:1029C0001A777868FEF7E2F87B6802225A777B680C
:1029D0001B68CA225A627B681B6853225A62786855
:1029E00000F097F80346002B08D07B681B68FF2295
:1029F0005A627B6804225A7701235EE07B681B6879
:102A00009B687A68126823F4E00323F04003936024
:102A10007B681B6899687B685A687B681B691A43E6
:102A20007B685B691A437B681B680A439A607B6812
:102A30001B687A68D2681A617B681B6819697B68B1
:102A40009B681A047B681B680A431A617B681B68D1
:102A5000DA687B681B6822F08002DA607B681B689A
:102A60009B6803F02003002B0ED1786800F029F852
:102A70000346002B08D07B681B68FF225A627B68E4
:102A800004225A77012318E07B681B681A6C7B6864
:102A90001B6822F480221A647B681B68196C7B68AF
:102AA0009A697B681B680A431A647B681B68FF226B
:102AB0005A627B6801225A77002318460837BD46C0
:102AC00080BD80B584B000AF78600023FB607B6878
:102AD0001B68DA687B681B6822F0A002DA60FEF7E8
:102AE00051FBF86009E0FEF74DFB0246FB68D31A84
:102AF000B3F57A7F01D9032307E07B681B68DB68A5
:102B000003F02003002BEED0002318461037BD46FB
:102B100080BD80B584B000AF78600023FB607B6827
:102B20001B68DB6803F04003002B19D17B681B682E
:102B30004FF0FF32DA60FEF725FBF86009E0FEF7A0
:102B400021FB0246FB68D31AB3F57A7F01D9032330
:102B500007E07B681B68DB6803F04003002BEED0C6
:102B6000002318461037BD4680BD80B582B000AF47
:102B700078607B68002B01D1012341E07B6893F8EA
:102B80003D30DBB2002B06D17B68002283F83C206D
:102B9000786800F039F87B68022283F83D207B6872
:102BA0001A687B6804331946104600F0D7F97B6831
:102BB000012283F846207B68012283F83E207B684F
:102BC000012283F83F207B68012283F840207B6844
:102BD000012283F841207B68012283F842207B6830
:102BE000012283F843207B68012283F844207B681C
:102BF000012283F845207B68012283F83D200023D1
:102C000018460837BD4680BD80B483B000AF7860F9
:102C100000BF0C37BD465DF8047B704780B485B0BB
:102C200000AF78607B6893F83D30DBB2012B01D0B8
:102C300001234EE07B68022283F83D207B681B68FD
:102C4000DA687B681B6842F00102DA607B681B6807
:102C5000234A934222D07B681B68B3F1804F1DD07A
:102C60007B681B681F4A934218D07B681B681E4A0A
:102C7000934213D07B681B681C4A93420ED07B683A
:102C80001B681B4A934209D07B681B68194A934210
:102C900004D07B681B68184A934211D17B681B687B
:102CA0009B6803F00703FB60FB68062B10D07B6872
:102CB0001B681A687B681B6842F001021A6007E013
:102CC0007B681B681A687B681B6842F001021A6007
:102CD000002318461437BD465DF8047B704700BFDB
:102CE000000001400004004000080040000C0040CB
:102CF00000040140004001400018004080B582B04F
:102D000000AF78607B681B681B6903F00203022B2D
:102D100022D17B681B68DB6803F00203022B1BD106
:102D20007B681B686FF002021A617B6801221A77C8
:102D30007B681B689B6903F00303002B03D0786852
:102D400000F0EEF805E0786800F0E0F8786800F050
:102D5000F1F87B6800221A777B681B681B6903F017
:102D60000403042B22D17B681B68DB6803F0040397
:102D7000042B1BD17B681B686FF004021A617B680F
:102D800002221A777B681B689B6903F44073002B4F
:102D900003D0786800F0C4F805E0786800F0B6F871
:102DA000786800F0C7F87B6800221A777B681B6898
:102DB0001B6903F00803082B22D17B681B68DB68C2
:102DC00003F00803082B1BD17B681B686FF0080217
:102DD0001A617B6804221A777B681B68DB6903F041
:102DE0000303002B03D0786800F09AF805E07868B8
:102DF00000F08CF8786800F09DF87B6800221A7764
:102E00007B681B681B6903F01003102B22D17B68C1
:102E10001B68DB6803F01003102B1BD17B681B6859
:102E20006FF010021A617B6808221A777B681B68B2
:102E3000DB6903F44073002B03D0786800F070F86E
:102E400005E0786800F062F8786800F073F87B6855
:102E500000221A777B681B681B6903F00103012BB2
:102E60000ED17B681B68DB6803F00103012B07D1DF
:102E70007B681B686FF001021A617868FDF746FEF7
:102E80007B681B681B6903F08003802B0ED17B6875
:102E90001B68DB6803F08003802B07D17B681B680D
:102EA0006FF080021A61786800F002F97B681B6895
:102EB0001B6903F04003402B0ED17B681B68DB6865
:102EC00003F04003402B07D17B681B686FF0400282
:102ED0001A61786800F038F87B681B681B6903F09A
:102EE0002003202B0ED17B681B68DB6803F02003D6
:102EF000202B07D17B681B686FF020021A6178686D
:102F000000F0CCF800BF0837BD4680BD80B483B068
:102F100000AF786000BF0C37BD465DF8047B70479A
:102F200080B483B000AF786000BF0C37BD465DF859
:102F3000047B704780B483B000AF786000BF0C376B
:102F4000BD465DF8047B704780B483B000AF786005
:102F500000BF0C37BD465DF8047B704780B485B078
:102F600000AF786039607B681B68FB607B68404A13
:102F7000934213D07B68B3F1804F0FD07B683D4AFA
:102F800093420BD07B683C4A934207D07B683B4A14
:102F9000934203D07B683A4A934208D1FB6823F0FE
:102FA0007003FB603B685B68FA681343FB607B68F7
:102FB0002F4A93422BD07B68B3F1804F27D07B6898
:102FC0002C4A934223D07B682B4A93421FD07B68C4
:102FD0002A4A93421BD07B68294A934217D07B68C8
:102FE000284A934213D07B68274A93420FD07B68CC
:102FF000264A93420BD07B68254A934207D07B68D0
:10300000244A934203D07B68234A934208D1FB6849
:1030100023F44073FB603B68DB68FA681343FB6092
:10302000FB6823F080023B685B691343FB607B68AD
:10303000FA681A603B689A687B68DA623B681A68CB
:103040007B689A627B680A4A934203D07B680C4A89
:10305000934203D13B681A697B681A637B6801223B
:103060005A6100BF1437BD465DF8047B704700BF4E
:10307000000001400004004000080040000C004037
:10308000000401400040014000440140004801406C
:1030900000180040001C00400020004080B483B0B5
:1030A00000AF786000BF0C37BD465DF8047B704709
:1030B00080B483B000AF786000BF0C37BD465DF8C8
:1030C000047B704780B582B000AF78607B68002BCE
:1030D00001D101233FE07B6893F83D30DBB2002B48
:1030E00006D17B68002283F83C207868FDF778FDE4
:1030F0007B68242283F83D207B681B68DA687B6844
:103100001B6822F40052DA60786800F0DBFC7B6810
:103110001B681A697B681B6822F490421A617B68FD
:103120001B685A697B681B6822F02A025A617B6817
:103130001B68DA687B681B6842F40052DA607B68BF
:1031400000221A647B68202283F83D207B682022BD
:1031500083F83E20002318460837BD4680BD80B561
:1031600084B000AFF860B9601346FB80FB6893F849
:103170003E30DBB2202B1DD1BB68002B02D0FB8878
:10318000002B01D1012316E0FB6893F83C30012BA2
:1031900001D102230FE0FB68012283F83C20FB6889
:1031A00000221A63FB881A46B968F86800F0B6FA7C
:1031B000034600E0022318461037BD4680BD0000DC
:1031C00080B5BAB000AF78607B681B681B68C7F831
:1031D000E4307B681B68DB68C7F8E0307B681B68FD
:1031E0005B69C7F8DC300023C7F8D8300023C7F884
:1031F000D430D7F8E43003F00F03C7F8D830D7F84D
:10320000D830002B0FD1D7F8E43003F02003002B87
:1032100009D0D7F8E03003F02003002B03D0786802
:1032200000F095FB56E2D7F8D830002B00F0DE8096
:10323000D7F8DC3003F00103002B06D1D7F8E030DB
:1032400003F49073002B00F0D180D7F8E43003F042
:103250000103002B0BD0D7F8E03003F48073002B70
:1032600005D07B681B6C43F001027B681A64D7F8B9
:10327000E43003F00403002B0BD0D7F8DC3003F06C
:103280000103002B05D07B681B6C43F002027B68B6
:103290001A64D7F8E43003F00203002B0BD0D7F800
:1032A000DC3003F00103002B05D07B681B6C43F07E
:1032B00004027B681A64D7F8E43003F00803002B9B
:1032C00011D0D7F8E03003F02003002B05D1D7F858
:1032D000DC3003F00103002B05D07B681B6C43F04E
:1032E00008027B681A647B681B6C002B00F0ED8180
:1032F000D7F8E43003F02003002B08D0D7F8E030F3
:1033000003F02003002B02D0786800F020FB7B68DC
:103310001B685B6903F04003402B0CBF01230023B3
:10332000DBB2C7F8D4307B681B6C03F00803002BBA
:1033300003D1D7F8D430002B4FD0786800F028FAAA
:103340007B681B685B6903F04003402B41D17B68BD
:103350001B681433C7F89C30D7F89C3053E8003F03
:10336000C7F89830D7F8983023F04003C7F8D0302A
:103370007B681B681433D7F8D020C7F8A820C7F89B
:10338000A430D7F8A410D7F8A82041E80023C7F844
:10339000A030D7F8A030002BD9D17B689B6B002BD5
:1033A00013D07B689B6B7D4A1A657B689B6B1846C4
:1033B000FEF746F80346002B16D07B689B6B1B6D0F
:1033C0007A68926B104698470EE0786800F090F9A2
:1033D0000AE0786800F08CF906E0786800F088F977
:1033E0007B6800221A6470E100BF6EE17B681B6B92
:1033F000012B40F04A81D7F8E43003F01003002B92
:1034000000F04381D7F8E03003F01003002B00F008
:103410003C810023BB607B681B681B68BB607B68CA
:103420001B685B68BB60BB687B681B685B6903F0FB
:103430004003402B40F0B4807B689B6B1B685B684B
:10344000A7F8BE30B7F8BE30002B00F040817B6893
:103450009B8DB7F8BE209A4280F039817B68B7F81F
:10346000BE20DA857B689B6BDB69B3F5807F00F05B
:1034700088807B681B680C33C7F88830D7F88830A1
:1034800053E8003FC7F88430D7F8843023F48073C2
:10349000C7F8B8307B681B680C33D7F8B820C7F87A
:1034A0009420C7F89030D7F89010D7F8942041E8CE
:1034B0000023C7F88C30D7F88C30002BD9D17B682B
:1034C0001B6814337B677B6F53E8003F3B673B6FA0
:1034D00023F00103C7F8B4307B681B681433D7F8B6
:1034E000B420C7F88020FB67F96FD7F8802041E847
:1034F0000023BB67BB6F002BE1D17B681B681433D3
:103500003B663B6E53E8003FFB65FB6D23F04003D9
:10351000C7F8B0307B681B681433D7F8B020FA6660
:10352000BB66B96EFA6E41E800237B667B6E002BAA
:10353000E3D17B68202283F83E207B6800221A6357
:103540007B681B680C33FB64FB6C53E8003FBB6477
:10355000BB6C23F01003C7F8AC307B681B680C33DE
:10356000D7F8AC20BA657B65796DBA6D41E8002368
:103570003B653B6D002BE3D17B689B6B1846FDF7E9
:10358000EFFE7B689A8D7B68DB8D9BB2D31A9BB272
:103590001946786800F0B6F899E000BF573800087F
:1035A0007B689A8D7B68DB8D9BB2D31AA7F8CE30EF
:1035B0007B68DB8D9BB2002B00F08B80B7F8CE30A0
:1035C000002B00F086807B681B680C33BB63BB6BF1
:1035D00053E8003F7B637B6B23F49073C7F8C830DC
:1035E0007B681B680C33D7F8C8207A643B64396C5D
:1035F0007A6C41E80023FB63FB6B002BE3D17B6813
:103600001B6814337B627B6A53E8003F3B623B6A72
:1036100023F00103C7F8C4307B681B681433D7F864
:10362000C4203A63FB62F96A3A6B41E80023BB624B
:10363000BB6A002BE3D17B68202283F83E207B68A5
:1036400000221A637B681B680C333B613B6953E8BB
:10365000003FFB60FB6823F01003C7F8C0307B68B5
:103660001B680C33D7F8C020FA61BB61B969FA69ED
:1036700041E800237B617B69002BE3D1B7F8CE30B2
:103680001946786800F03EF823E0D7F8E43003F0FC
:103690008003002B09D0D7F8E03003F08003002B23
:1036A00003D0786800F0EBF814E0D7F8E43003F0CA
:1036B0004003002B0ED0D7F8E03003F04003002B7E
:1036C00008D0786800F02BF904E000BF02E000BFEA
:1036D00000E000BFE837BD4680BD00BF80B483B0C6
:1036E00000AF786000BF0C37BD465DF8047B7047C3
:1036F00080B483B000AF786000BF0C37BD465DF882
:10370000047B704780B483B000AF78600B467B8049
:1037100000BF0C37BD465DF8047B704780B485B0B0
:1037200000AFF860B9601346FB80FB68BA689A6224
:10373000FB68FA889A85FB68FA88DA85FB680022BC
:103740001A64FB68222283F83E20FB68002283F87B
:103750003C20FB681B68DA68FB681B6842F48072D7
:10376000DA60FB681B685A69FB681B6842F001025B
:103770005A61FB681B68DA68FB681B6842F020022C
:10378000DA60002318461437BD465DF8047B7047A5
:1037900080B495B000AF78607B681B680C337B63A6
:1037A0007B6B53E8003F3B633B6B23F49073FB64FC
:1037B0007B681B680C33FA6C3A64FB63F96B3A6CF8
:1037C00041E80023BB63BB6B002BE5D17B681B6822
:1037D00014333B623B6A53E8003FFB61FB6923F013
:1037E0000103BB647B681B681433BA6CFA62BB626A
:1037F000B96AFA6A41E800237B627B6A002BE5D153
:103800007B681B6B012B19D17B681B680C33FB6039
:10381000FB6853E8003FBB60BB6823F010037B6488
:103820007B681B680C337A6CBA617B617969BA6911
:1038300041E800233B613B69002BE5D17B682022F6
:1038400083F83E207B6800221A6300BF5437BD46D0
:103850005DF8047B704780B584B000AF78607B680A
:103860009B6BFB60FB680022DA85FB680022DA8430
:10387000F868FFF73DFF00BF1037BD4680BD80B43C
:1038800085B000AF78607B6893F83D30DBB2212BC8
:103890003ED17B689B68B3F5805F14D17B681B6960
:1038A000002B10D17B681B6AFB60FB681B881A46E3
:1038B0007B681B68C2F308025A607B681B6A9A1C0B
:1038C0007B681A6208E07B681B6A591C7A6811627F
:1038D0001A787B681B685A607B68DB8C9BB2013B63
:1038E0009BB27A681946D184002B0FD17B681B6884
:1038F000DA687B681B6822F08002DA607B681B68EC
:10390000DA687B681B6842F04002DA60002300E05E
:10391000022318461437BD465DF8047B704780B516
:1039200082B000AF78607B681B68DA687B681B68D0
:1039300022F04002DA607B68202283F83D2078681C
:10394000FFF7CCFE002318460837BD4680BD80B582
:103950008CB000AF78607B6893F83E30DBB2222BEE
:1039600040F0AB807B689B68B3F5805F17D17B68C4
:103970001B69002B13D10023FB627B689B6ABB622F
:103980007B681B685B689BB2C3F308039AB2BB6A8F
:103990001A807B689B6A9A1C7B689A6226E07B6827
:1039A0009B6AFB620023BB627B689B68B3F5805F08
:1039B00007D07B689B68002B0AD17B681B69002BB2
:1039C00006D17B681B685B68DAB2FB6A1A7008E094
:1039D0007B681B685B68DBB203F07F03DAB2FB6ACB
:1039E0001A707B689B6A5A1C7B689A627B68DB8DC5
:1039F0009BB2013B9BB27A681946D185002B5AD104
:103A00007B681B68DA687B681B6822F02002DA603A
:103A10007B681B68DA687B681B6822F48072DA6056
:103A20007B681B685A697B681B6822F001025A6137
:103A30007B68202283F83E207B681B6B012B35D1ED
:103A40007B6800221A637B681B680C337B617B698F
:103A500053E8003F3B613B6923F010037B627B68C6
:103A60001B680C337A6A3A62FB61F9693A6A41E889
:103A70000023BB61BB69002BE5D17B681B681B6819
:103A800003F01003102B0AD10023FB607B681B6836
:103A90001B68FB607B681B685B68FB60FB687B687E
:103AA0009B8D19467868FFF72DFE02E07868FCF7D9
:103AB000B7FF002302E0002300E00223184630375E
:103AC000BD4680BD2DE9F04F9FB000AFF866FB6E9C
:103AD0001B681B6923F44050FB6ED968FB6E1A68A3
:103AE00040EA01031361FB6E9A68FB6E1B691A437F
:103AF000FB6E5B691A43FB6EDB6913433B67FB6E2E
:103B00001B68DB6823F4164121F00C01FB6E1A6878
:103B10003B6F0B43D360FB6E1B685B6923F4407003
:103B2000FB6E9969FB6E1A6840EA01035361FB6EF4
:103B30001A68C54B9A4204D0FB6E1A68C34B9A426E
:103B400003D1FDF76DFF786702E0FDF755FF786759
:103B5000FB6EDB69B3F5004F40F0B6807B6F1C460F
:103B60004FF0000522462B46911839645B417B6477
:103B7000D7E91023121945EB03034FF000004FF073
:103B80000001D90041EA5271D00002460B461119DA
:103B900039666B417B66FB6E5B681A464FF000032B
:103BA0009118B9635B41FB63D7E90E23D7E918018C
:103BB000FCF72EFB02460B46A54BA3FB02235B0939
:103BC0001E017B6F1C464FF0000522462B469118C4
:103BD00039635B417B63D7E90C23121945EB03037F
:103BE0004FF000004FF00001D90041EA5271D000BF
:103BF00002460B461119B9656B41FB65FB6E5B68AC
:103C00001A464FF000039118B9625B41FB62D7E995
:103C10000A23D7E91601FCF7FBFA02460B468C4B48
:103C2000A3FB02135B09642101FB03F3D31ADB003E
:103C30003233874AA2FB03235B095B0003F4F8736A
:103C40001E447B6F18464FF0000102460B46941845
:103C50003C625B417B62D7E90823121841EB030306
:103C60004FF000044FF00005DD0045EA5275D40026
:103C700022462B4614183C654B417B65FB6E5B6806
:103C80001A464FF000039118B9615B41FB61D7E917
:103C90000623D7E91401FCF7BBFA02460B466C4B2E
:103CA000A3FB02135B09642101FB03F3D31ADB00BE
:103CB0003233674AA2FB03235B0903F00702FB6E62
:103CC0001B6832449A60B9E07B6F1C464FF00005D8
:103CD00022462B46911839615B417B61D7E9042369
:103CE000121945EB03034FF000004FF00001D9001B
:103CF00041EA5271D00002460B4612EB040843EB36
:103D00000509FB6E5B6818464FF000014FF000029A
:103D10004FF000038B0043EA90738200404649460F
:103D2000FCF776FA02460B46494BA3FB02235B09DC
:103D30001E017B6F18464FF0000102460B46941897
:103D4000BC605B41FB60D7E90223121841EB03031F
:103D50004FF000044FF00005DD0045EA5275D40035
:103D600022462B461418BC644B41FB64FB6E5B6817
:103D700018464FF000014FF000024FF000038B0097
:103D800043EA90738200D7E91201FCF741FA024638
:103D90000B462F4BA3FB02135B09642101FB03F3CA
:103DA000D31A1B0132332A4AA2FB03235B0903F017
:103DB000F0031E447B6F18464FF0000102460B468D
:103DC00094183C605B417B60D7E90023121841EBFB
:103DD00003034FF000044FF00005DD0045EA527583
:103DE000D40022462B4612EB000A43EB010BFB6E7C
:103DF0005B6818464FF000014FF000024FF00003DF
:103E00008B0043EA9073820050465946FCF700FA53
:103E100002460B460E4BA3FB02135B09642101FB18
:103E200003F3D31A1B013233094AA2FB03235B09B4
:103E300003F00F02FB6E1B6832449A6000BF7C37B0
:103E4000BD46BDE8F08F00BF0010014000140140E6
:103E50001F85EB5180B483B000AF78607B6803F1BD
:103E600008027B685A607B684FF0FF329A607B687B
:103E700003F108027B68DA607B6803F108027B6863
:103E80001A617B6800221A6000BF0C37BD465DF8DE
:103E9000047B704780B483B000AF78607B680022F9
:103EA0001A6100BF0C37BD465DF8047B704780B4D3
:103EB00085B000AF786039607B685B68FB603B6809
:103EC000FA685A60FB689A683B689A60FB689B686E
:103ED0003A685A60FB683A689A603B687A681A6187
:103EE0007B681B685A1C7B681A6000BF1437BD468C
:103EF0005DF8047B704780B485B000AF78603960AE
:103F00003B681B68BB60BB68B3F1FF3F03D17B68B4
:103F10001B69FB600CE07B680833FB6002E0FB6818
:103F20005B68FB60FB685B681B68BA689A42F6D204
:103F3000FB685A683B685A603B685B683A689A60FD
:103F40003B68FA689A60FB683A685A603B687A682E
:103F50001A617B681B685A1C7B681A6000BF1437A3
:103F6000BD465DF8047B704780B485B000AF7860D3
:103F70007B681B69FB607B685B687A6892689A6003
:103F80007B689B687A6852685A60FB685B687A68ED
:103F90009A4203D17B689A68FB685A607B6800226A
:103FA0001A61FB681B685A1EFB681A60FB681B6875
:103FB00018461437BD465DF8047B704780B586B05F
:103FC00000AF7860396001237B617B683B613B69AE
:103FD000002B0AD14FF0500383F31188BFF36F8F8A
:103FE000BFF34F8FFB6000BFFEE73B69002B5DD046
:103FF0003B69DB6B002B59D03B691A6C3B69DB6B6F
:104000000021A3FB0223002B00D001210B46002B33
:104010004CD102F0D1FA3B691A683B69DB6B396914
:10402000096C01FB03F31A443B699A603B69002267
:104030009A633B691A683B695A603B691A683B6935
:10404000DB6B013B3969096C01FB03F31A443B69E3
:10405000DA603B69FF2283F844203B69FF2283F842
:1040600045203B68002B14D13B691B69002B1AD0FB
:104070003B691033184601F07BF90346002B12D040
:10408000154B4FF080521A60BFF34F8FBFF36F8F05
:1040900009E03B6910331846FFF7DCFE3B69243327
:1040A0001846FFF7D7FE02F0B7FA01E000237B6164
:1040B0007B69002B0AD14FF0500383F31188BFF3C3
:1040C0006F8FBFF34F8FBB6000BFFEE77B69184661
:1040D0001837BD4680BD00BF04ED00E080B58AB052
:1040E00002AFF860B9601346FB710023FB61FB6807
:1040F000002B2ED00021BA68FB68A3FB0223002B03
:1041000000D001210B46002B23D1FB68BA6802FBCB
:1041100003F313F1510F1CD8FB68BA6802FB03F3D9
:10412000BB61BB695033184602F068FBF861FB695C
:10413000002B1CD0FB697B617B6950337B61FA7972
:10414000FB69009313467A69B968F86800F014F8BF
:104150000DE0FB69002B0AD14FF0500383F3118867
:10416000BFF36F8FBFF34F8F3B6100BFFEE7FB696B
:1041700018462037BD4680BD80B584B000AFF860DA
:10418000B9607A60FB70BB68002B03D1BB69BA6968
:104190001A6002E0BB697A681A60BB69FA68DA6380
:1041A000BB69BA681A640121B869FFF707FFBB69E8
:1041B000FA7883F84C2000BF1037BD4680BD000060
:1041C00080B58EB000AFF860B9607A603B600023C4
:1041D0007B63FB683B633B6B002B0AD14FF05003C2
:1041E00083F31188BFF36F8FBFF34F8FBB6200BFA4
:1041F000FEE7BB68002B03D13B6B1B6C002B01D18E
:10420000012300E00023002B0AD14FF0500383F379
:104210001188BFF36F8FBFF34F8F7B6200BFFEE744
:104220003B68022B03D13B6BDB6B012B01D10123DC
:1042300000E00023002B0AD14FF0500383F31188D4
:10424000BFF36F8FBFF34F8F3B6200BFFEE701F0FC
:104250002BFA0346002B02D17B68002B01D10123EE
:1042600000E00023002B0AD14FF0500383F31188A4
:10427000BFF36F8FBFF34F8FFB6100BFFEE702F00C
:104280009BF93B6B9A6B3B6BDB6B9A4202D33B68AF
:10429000022B29D13A68B968386B00F0C6FAF86287
:1042A0003B6B5B6A002B10D03B6B2433184601F04C
:1042B0005FF80346002B13D03F4B4FF080521A603B
:1042C000BFF34F8FBFF36F8F0AE0FB6A002B07D05D
:1042D000394B4FF080521A60BFF34F8FBFF36F8F8F
:1042E00002F09AF9012363E07B68002B03D102F00E
:1042F00093F900235CE07B6B002B06D107F11403DC
:10430000184601F097F801237B6302F085F900F06D
:1043100011FE02F051F93B6B93F844305BB2B3F1FC
:10432000FF3F03D13B6B002283F844203B6B93F8A3
:1043300045305BB2B3F1FF3F03D13B6B002283F802
:10434000452002F069F93A1D07F114031146184699
:1043500001F086F80346002B24D1386B00F05DFB9A
:104360000346002B18D03B6B10337A681146184671
:1043700000F0AEFF386B00F0E8FA00F0E9FD03460C
:10438000002B7FF47CAF0C4B4FF080521A60BFF3D0
:104390004F8FBFF36F8F72E7386B00F0D6FA00F0E3
:1043A000D7FD6CE7386B00F0D0FA00F0D1FD0023A8
:1043B00018463837BD4680BD04ED00E080B590B0AA
:1043C00000AFF860B9607A603B60FB68BB63BB6BB1
:1043D000002B0AD14FF0500383F31188BFF36F8F86
:1043E000BFF34F8FBB6200BFFEE7BB68002B03D15A
:1043F000BB6B1B6C002B01D1012300E00023002BC1
:104400000AD14FF0500383F31188BFF36F8FBFF3CE
:104410004F8F7B6200BFFEE73B68022B03D1BB6B73
:10442000DB6B012B01D1012300E00023002B0AD11B
:104430004FF0500383F31188BFF36F8FBFF34F8F9B
:104440003B6200BFFEE702F099F9EFF311824FF0F3
:10445000500383F31188BFF36F8FBFF34F8FFA615F
:10446000BB61FB697B63BB6B9A6BBB6BDB6B9A427B
:1044700002D33B68022B3ED1BB6B93F8453087F8E3
:104480003330BB6B9B6BFB623A68B968B86B00F06A
:10449000CCF997F93330B3F1FF3F12D1BB6B5B6AB4
:1044A000002B25D0BB6B2433184600F061FF034678
:1044B000002B1DD07B68002B1AD07B6801221A606C
:1044C00016E097F933307F2B0AD14FF0500383F376
:1044D0001188BFF36F8FBFF34F8F7B6100BFFEE783
:1044E00097F833300133DBB25AB2BB6B83F8452007
:1044F0000123FB6301E00023FB637B6B3B613B69B2
:1045000083F3118800BFFB6B18464037BD4680BD62
:1045100080B58CB000AFF860B9607A600023FB62B0
:10452000FB68BB62BB6A002B0AD14FF0500383F3D8
:104530001188BFF36F8FBFF34F8F3B6200BFFEE761
:10454000BB68002B03D1BB6A1B6C002B01D101237C
:1045500000E00023002B0AD14FF0500383F31188B1
:10456000BFF36F8FBFF34F8FFB6100BFFEE701F01A
:104570009BF80346002B02D17B68002B01D101235D
:1045800000E00023002B0AD14FF0500383F3118881
:10459000BFF36F8FBFF34F8FBB6100BFFEE702F029
:1045A0000BF8BB6A9B6B7B627B6A002B1FD0B968E0
:1045B000B86A00F0A4F97B6A5A1EBB6A9A63BB6AA8
:1045C0001B69002B0FD0BB6A1033184600F0D0FED9
:1045D0000346002B07D03D4B4FF080521A60BFF3CB
:1045E0004F8FBFF36F8F02F017F8012369E07B68EC
:1045F000002B03D102F010F8002362E0FB6A002BCD
:1046000006D107F11003184600F014FF0123FB62E6
:1046100002F002F800F08EFC01F0CEFFBB6A93F8C6
:1046200044305BB2B3F1FF3F03D1BB6A002283F891
:104630004420BB6A93F845305BB2B3F1FF3F03D12E
:10464000BB6A002283F8452001F0E6FF3A1D07F11E
:1046500010031146184600F003FF0346002B23D138
:10466000B86A00F0C4F90346002B17D0BB6A2433A4
:104670007A681146184600F02BFEB86A00F065F91A
:1046800000F066FC0346002B89D1104B4FF080529E
:104690001A60BFF34F8FBFF36F8F80E7B86A00F0E7
:1046A00054F900F055FC7AE7B86A00F04EF900F0D2
:1046B0004FFCB86A00F09BF90346002B3FF46FAF44
:1046C000002318463037BD4680BD00BF04ED00E032
:1046D00080B590B000AFF860B9607A60FB68BB63EA
:1046E000BB6B002B0AD14FF0500383F31188BFF34B
:1046F0006F8FBFF34F8FBB6200BFFEE7BB68002B1D
:1047000003D1BB6B1B6C002B01D1012300E0002304
:10471000002B0AD14FF0500383F31188BFF36F8F42
:10472000BFF34F8F7B6200BFFEE702F027F8EFF385
:1047300011824FF0500383F31188BFF36F8FBFF3E3
:104740004F8F3A62FB613B6A7B63BB6B9B6B3B6346
:104750003B6B002B3ED0BB6B93F8443087F82F3077
:10476000B968B86B00F0CBF83B6B5A1EBB6B9A6311
:1047700097F92F30B3F1FF3F12D1BB6B1B69002BB0
:1047800025D0BB6B1033184600F0F2FD0346002B1A
:104790001DD07B68002B1AD07B6801221A6016E0BE
:1047A00097F92F307F2B0AD14FF0500383F31188F4
:1047B000BFF36F8FBFF34F8FBB6100BFFEE797F86A
:1047C0002F300133DBB25AB2BB6B83F84420012394
:1047D000FB6301E00023FB637B6B7B617B6983F3FD
:1047E000118800BFFB6B18464037BD4680BD80B5C1
:1047F00084B000AF78607B68002B0AD14FF0500383
:1048000083F31188BFF36F8FBFF34F8FBB6000BF7F
:10481000FEE701F0D1FE7B689B6BFB6001F0FCFEC4
:10482000FB6818461037BD4680BD80B586B000AF26
:10483000F860B9607A6000237B61FB689B6B3B6129
:10484000FB681B6C002B0DD1FB681B68002B4DD146
:10485000FB689B68184600F045FF7861FB68002202
:104860009A6043E07B68002B19D1FB685868FB68AD
:104870001B6C1A46B96802F0E3F9FB685A68FB68DA
:104880001B6C1A44FB685A60FB685A68FB689B689B
:104890009A422BD3FB681A68FB685A6026E0FB68D3
:1048A000D868FB681B6C1A46B96802F0C9F9FB6846
:1048B000DA68FB681B6C5B421A44FB68DA60FB68D1
:1048C000DA68FB681B689A4207D2FB689A68FB6843
:1048D0001B6C5B421A44FB68DA607B68022B05D1D3
:1048E0003B69002B02D03B69013B3B613B695A1C91
:1048F000FB689A637B6918461837BD4680BD80B552
:1049000082B000AF786039607B681B6C002B18D0D8
:104910007B68DA687B681B6C1A447B68DA607B68AA
:10492000DA687B689B689A4203D37B681A687B6865
:10493000DA607B68D9687B681B6C1A46386802F0BD
:104940007FF900BF0837BD4680BD80B584B000AF99
:10495000786001F031FE7B6893F84530FB7311E01D
:104960007B685B6A002B12D07B682433184600F00A
:10497000FFFC0346002B01D000F0D8FDFB7B013B80
:10498000DBB2FB7397F90F30002BE9DC00E000BFCE
:104990007B68FF2283F8452001F03EFE01F00CFE0B
:1049A0007B6893F84430BB7311E07B681B69002B74
:1049B00012D07B681033184600F0DAFC0346002B57
:1049C00001D000F0B3FDBB7B013BDBB2BB7397F9B9
:1049D0000E30002BE9DC00E000BF7B68FF2283F88B
:1049E000442001F019FE00BF1037BD4680BD80B5E0
:1049F00084B000AF786001F0DFFD7B689B6B002B1B
:104A000002D10123FB6001E00023FB6001F004FE02
:104A1000FB6818461037BD4680BD80B584B000AF36
:104A2000786001F0C9FD7B689A6B7B68DB6B9A420A
:104A300002D10123FB6001E00023FB6001F0ECFDEB
:104A4000FB6818461037BD4680BD80B487B000AF04
:104A500078607B683B613B69002B0AD14FF05003C3
:104A600083F31188BFF36F8FBFF34F8FFB6000BFDD
:104A7000FEE73B699A6B3B69DB6B9A4202D10123EB
:104A80007B6101E000237B617B6918461C37BD46D2
:104A90005DF8047B7047000080B487B000AF786099
:104AA00039607B68002B0AD14FF0500383F31188E3
:104AB000BFF36F8FBFF34F8FFB6000BFFEE7002394
:104AC0003B613B68002B24D000237B611EE0184A29
:104AD0007B69DB0013445B687A689A4205D17B6985
:104AE000DB00134A13443B6113E03B69002B0AD1FE
:104AF0000F4A7B6952F83330002B04D17B69DB000D
:104B00000B4A13443B617B6901337B617B69072B53
:104B1000DDD93B69002B05D03B693A681A603B69D7
:104B20007A685A6000BF1C37BD465DF8047B704749
:104B3000842E012080B586B000AFF860B9607A603D
:104B4000FB687B6101F038FD7B6993F844305BB210
:104B5000B3F1FF3F03D17B69002283F844207B69D6
:104B600093F845305BB2B3F1FF3F03D17B6900227C
:104B700083F8452001F050FD7B699B6B002B06D12B
:104B80007B6924337A68B968184600F0C5FB7869F8
:104B9000FFF7DBFE00BF1837BD4680BD80B58CB087
:104BA00004AFF860B9603B601346FB80FB889B0054
:104BB000184601F023FE78617B69002B0ED0582047
:104BC00001F01CFEF861FB69002B03D0FB697A69D8
:104BD0001A6305E0786901F0F1FE01E00023FB6152
:104BE000FB69002B13D0FA8800230393FB6902931F
:104BF000FB6A0193BB6A00933B68B968F86800F0F0
:104C00000EF8F86900F0A2F80123BB6102E04FF052
:104C1000FF33BB61BB6918462037BD4680BD80B5F8
:104C200088B000AFF860B9607A603B603B6B186B8E
:104C30007B689B001A46A52102F010F83B6B1A6BAB
:104C40007B6803F18043013B9B001344BB61BB695C
:104C500023F00703BB61BB6903F00703002B0AD0F5
:104C60004FF0500383F31188BFF36F8FBFF34F8F63
:104C70007B6100BFFEE7BB68002B1FD00023FB61F8
:104C800012E0BA68FB69134419783A6BFB69134464
:104C900034330A461A70BA68FB6913441B78002B38
:104CA00006D0FB690133FB61FB69092BE9D900E000
:104CB00000BF3B6B002283F83D2003E03B6B0022EA
:104CC00083F83420BB6A042B01D90423BB623B6BFD
:104CD000BA6ADA623B6BBA6A9A643B6B0022DA64A6
:104CE0003B6B04331846FFF7D5F83B6B1833184677
:104CF000FFF7D0F83B6B3A6B1A61BB6AC3F1050250
:104D00003B6B9A613B6B3A6B5A623B6B50330422AC
:104D10000021184601F0A2FF3B6B54330122002111
:104D2000184601F09BFF3A68F968B86901F018FB72
:104D300002463B6B1A60FB6A002B02D0FB6A3A6B9F
:104D40001A6000BF2037BD4680BD000080B582B02C
:104D500000AF786001F030FC2C4B1B6801332B4A0C
:104D600013602B4B1B68002B09D1294A7B68136009
:104D7000264B1B68012B10D100F0FCFB0DE0254BEE
:104D80001B68002B09D1224B1B68DA6A7B68DB6A3F
:104D90009A4202D81E4A7B6813601F4B1B6801337E
:104DA0001D4A13601C4B1A687B681A647B68DB6AB7
:104DB00001229A40194B1B681343184A13607B6801
:104DC000DA6A13469B0013449B00154A1A447B6819
:104DD000043319461046FFF76AF801F01DFC0D4B2D
:104DE0001B68002B0ED00A4B1B68DA6A7B68DB6AF3
:104DF0009A4207D20B4B4FF080521A60BFF34F8F8D
:104E0000BFF36F8F00BF0837BD4680BD1001002083
:104E1000380000201C0100202C0100201801002077
:104E20003C00002004ED00E080B584B000AF786065
:104E30000023FB607B68002B17D0134B1B68002BF3
:104E40000AD04FF0500383F31188BFF36F8FBFF385
:104E50004F8FBB6000BFFEE700F06CF80021786860
:104E600000F01CFF00F074F8F860FB68002B07D11D
:104E7000064B4FF080521A60BFF34F8FBFF36F8F16
:104E800000BF1037BD4680BD3801002004ED00E0B2
:104E900080B586B002AF204B01930023009300231E
:104EA00082221E491E48FFF779FEF860FB68012B3D
:104EB00002D100F059FFF860FB68012B16D14FF0CA
:104EC000500383F31188BFF36F8FBFF34F8FBB6025
:104ED00000BF144B4FF0FF321A60134B01221A60CF
:104EE000124B00221A6001F0C5FA0EE0FB68B3F124
:104EF000FF3F0AD14FF0500383F31188BFF36F8F48
:104F0000BFF34F8F7B6000BFFEE7094B1B6800BFFC
:104F10001037BD4680BD00BF34010020186E000868
:104F200045550008300100201C010020140100201C
:104F30001000002080B400AF044B1B680133034A0B
:104F4000136000BFBD465DF8047B70473801002048
:104F500080B584B000AF0023FB600023BB60414BF1
:104F60001B68002B0AD14FF0500383F31188BFF365
:104F70006F8FBFF34F8F3B6000BFFEE701F01CFB5C
:104F8000384B1B68013B374A1360364B1B68002BBC
:104F900061D1354B1B68002B5DD02EE0334BDB68B5
:104FA000DB68FB60FB6818331846FEF7DDFFFB6823
:104FB00004331846FEF7D8FFFB68DB6A01229A40EB
:104FC0002B4B1B6813432A4A1360FB68DA6A1346AB
:104FD0009B0013449B00274A1A44FB68043319467C
:104FE0001046FEF764FFFB68DA6A234B1B68DB6A36
:104FF0009A4202D3214B01221A601C4B1B68002BE2
:10500000CCD1FB68002B01D000F032FB1C4B1B689D
:105010007B607B68002B10D000F046F80346002B25
:1050200002D0164B01221A607B68013B7B607B68D3
:10503000002BF1D1124B00221A60104B1B68002B81
:1050400009D00123BB600F4B4FF080521A60BFF3B1
:105050004F8FBFF36F8F01F0DFFABB681846103730
:10506000BD4680BD3801002010010020D000002086
:10507000180100203C0000203800002024010020FE
:105080002001002004ED00E080B483B000AF054BA8
:105090001B687B607B6818460C37BD465DF8047B57
:1050A000704700BF1401002080B586B000AF002318
:1050B0007B614E4B1B68002B40F08E804C4B1B6875
:1050C00001333B614A4A3B6913603B69002B20D1A5
:1050D000484B1B681B68002B0AD04FF0500383F32A
:1050E0001188BFF36F8FBFF34F8F3B6000BFFEE7A8
:1050F000404B1B68FB60404B1B683E4A13603E4AB6
:10510000FB6813603D4B1B6801333C4A136000F0A1
:10511000AFFA3B4B1B683A699A4248D3354B1B6840
:105120001B68002B04D1364B4FF0FF321A603EE073
:10513000304B1B68DB68DB68BB60BB685B687B600F
:105140003A697B689A4203D22D4A7B6813602EE04D
:10515000BB6804331846FEF707FFBB689B6A002B49
:1051600004D0BB6818331846FEF7FEFEBB68DB6A46
:1051700001229A40234B1B681343224A1360BB68E9
:10518000DA6A13469B0013449B001F4A1A44BB680B
:10519000043319461046FEF78AFEBB68DA6A1B4BD9
:1051A0001B68DB6A9A42B9D301237B61B6E7174BD0
:1051B0001B68DA6A144913469B0013449B000B4496
:1051C0001B68012B01D901237B61114B1B68002B4C
:1051D00007D001237B6104E00E4B1B6801330D4AAD
:1051E00013607B6918461837BD4680BD3801002022
:1051F00014010020C8000020CC000020280100205D
:1052000030010020180100203C0000203800002060
:10521000240100202001002080B487B000AF274B7C
:105220001B68002B03D0264B01221A603FE0244B61
:1052300000221A60234B1B68FB60FB68B3FA83F300
:10524000FB72FB7AC3F11F037B611F497A69134626
:105250009B0013449B000B441B68002B0AD14FF0AA
:10526000500383F31188BFF36F8FBFF34F8F7B60C1
:1052700000BFFEE77A6913469B0013449B00124A65
:1052800013443B613B695B685A683B695A603B6900
:105290005A683B6908339A4204D13B695B685A6893
:1052A0003B695A603B695B68DB68084A136000BF72
:1052B0001C37BD465DF8047B704700BF38010020F5
:1052C00024010020180100203C00002038000020AC
:1052D00080B584B000AF786039607B68002B0AD15C
:1052E0004FF0500383F31188BFF36F8FBFF34F8FDD
:1052F000FB6000BFFEE7074B1B6818331946786850
:10530000FEF7F9FD0121386800F0C8FC00BF103736
:10531000BD4680BD3800002080B586B000AFF86083
:10532000B9607A60FB68002B0AD14FF0500383F319
:105330001188BFF36F8FBFF34F8F7B6100BFFEE714
:105340000A4B1B6818331946F868FEF7B0FD7B68F6
:10535000002B02D04FF0FF33BB607968B86800F0D3
:105360009DFC00BF1837BD4680BD00BF380000203F
:1053700080B586B000AF78607B68DB68DB683B6136
:105380003B69002B0AD14FF0500383F31188BFF320
:105390006F8FBFF34F8FFB6000BFFEE73B69183391
:1053A0001846FEF7E1FD1D4B1B68002B1CD13B6925
:1053B00004331846FEF7D8FD3B69DB6A01229A40A8
:1053C000174B1B681343164A13603B69DA6A13468E
:1053D0009B0013449B00134A1A443B69043319464B
:1053E0001046FEF764FD05E03B69183319460E4888
:1053F000FEF75DFD3B69DA6A0C4B1B68DB6A9A427B
:1054000005D901237B610A4B01221A6001E00023C8
:105410007B617B6918461837BD4680BD3801002086
:10542000180100203C000020D0000020380000209F
:105430002401002080B483B000AF7860064B1A6866
:105440007B681A60054B1A687B685A6000BF0C378E
:10545000BD465DF8047B7047280100201401002040
:1054600080B588B000AF786039607B68002B0AD1C6
:105470004FF0500383F31188BFF36F8FBFF34F8F4B
:105480003B6100BFFEE73B68002B0AD14FF05003A1
:1054900083F31188BFF36F8FBFF34F8FFB6000BFA3
:1054A000FEE701F089F81F4B1B68BB617B685B68F6
:1054B000BA69D31A7B613B681B68B3F1FF3F02D125
:1054C0000023FB6126E07B681A68174B1B689A4231
:1054D0000AD07B685B68BA699A4205D30123FB61F5
:1054E0003B6800221A6015E03B681B687A699A42A3
:1054F0000BD23B681A687B69D21A3B681A607868DD
:10550000FFF798FF0023FB6104E03B6800221A606C
:105510000123FB6101F080F8FB6918462037BD4686
:1055200080BD00BF140100202801002080B400AF1E
:10553000034B01221A6000BFBD465DF8047B704733
:105540002401002080B582B000AF786000F052F8EE
:10555000064B1B68012BF9D9054B4FF080521A609E
:10556000BFF34F8FBFF36F8FF0E700BF3C00002009
:1055700004ED00E080B582B000AF00237B600CE05A
:105580007A6813469B0013449B00124A1344184642
:10559000FEF760FC7B6801337B607B68042BEFD9EE
:1055A0000D48FEF757FC0D48FEF754FC0C48FEF77B
:1055B00051FC0C48FEF74EFC0B48FEF74BFC0B4B26
:1055C000054A1A600A4B054A1A6000BF0837BD46F3
:1055D00080BD00BF3C000020A0000020B4000020DF
:1055E000D0000020E4000020FC000020C8000020C3
:1055F000CC00002080B582B000AF19E000F0DCFFE5
:10560000104BDB68DB687B607B6804331846FEF771
:10561000ABFC0D4B1B68013B0B4A13600B4B1B682B
:10562000013B0A4A136000F0F7FF786800F010F8B9
:10563000064B1B68002BE1D100BF00BF0837BD46F9
:1056400080BD00BFE400002010010020F800002011
:1056500080B582B000AF78607B681B6B184601F0A4
:10566000ADF9786801F0AAF900BF0837BD4680BDE2
:1056700080B400AF0A4B1B681B68002B04D1094B98
:105680004FF0FF321A6005E0054B1B68DB681B68B2
:10569000044A136000BFBD465DF8047B704700BF3D
:1056A000C80000203001002080B483B000AF0B4B55
:1056B0001B68002B02D101237B6008E0084B1B68AC
:1056C000002B02D102237B6001E000237B607B681A
:1056D00018460C37BD465DF8047B70471C0100205E
:1056E0003801002080B586B000AF78607B683B61F0
:1056F00000237B617B68002B63D0344B1B683A69C5
:105700009A420AD04FF0500383F31188BFF36F8F92
:10571000BFF34F8FFB6000BFFEE73B69DB6C002BE4
:105720000AD14FF0500383F31188BFF36F8FBFF39B
:105730004F8FBB6000BFFEE73B69DB6C5A1E3B69C5
:10574000DA643B69DA6A3B699B6C9A4239D03B69FF
:10575000DB6C002B35D13B6904331846FEF704FCA3
:105760000346002B0AD13B69DB6A012202FA03F3EC
:10577000DA43174B1B681340154A13603B699A6C58
:105780003B69DA623B69DB6AC3F105023B699A61F6
:105790003B69DB6A01229A400D4B1B6813430C4A9C
:1057A00013603B69DA6A13469B0013449B00094A65
:1057B0001A443B69043319461046FEF778FB01236F
:1057C0007B617B6918461837BD4680BD38000020D4
:1057D000180100203C00002080B586B000AFF860C2
:1057E000B9607A603B60FB68002B0AD04FF0500331
:1057F00083F31188BFF36F8FBFF34F8F3B6100BFFF
:10580000FEE700F0D9FE324B1A68FB6813445433AC
:105810001B78DBB2022B22D02D4B1B68FA681432A6
:1058200053F82210BA68D2431140FA68143243F890
:105830002210274B1A68FB681344543301221A7054
:105840003B6A002B0BD00121386A00F027FA214B6C
:105850004FF080521A60BFF34F8FBFF36F8F00F08D
:10586000DBFE00F0A9FE3B68002B07D0184B1B683D
:10587000FA68143253F822203B681A60144B1A68F5
:10588000FB68134454331B78DBB2022B02D0002395
:105890007B610EE00E4B1B68FA68143253F822103D
:1058A0007A68D2431140FA68143243F82210012377
:1058B0007B61074B1A68FB681344543300221A704B
:1058C00000F0AAFE7B6918461837BD4680BD00BFB0
:1058D0003800002004ED00E080B58CB000AFF86027
:1058E000B9607A60FB700123FB62BB68002B0AD0B1
:1058F0004FF0500383F31188BFF36F8FBFF34F8FC7
:105900003B6200BFFEE7FB68002B0AD14FF050035B
:1059100083F31188BFF36F8FBFF34F8FFB6100BF1D
:10592000FEE7FB68BB6200F047FEBB6B002B06D0B6
:10593000BB6ABA68143253F82220BB6B1A60BA6A89
:10594000BB68134454331B7887F82730BA6ABB68A6
:105950001344543302221A70FB78042B3BD801A263
:1059600052F823F0F55900087959000895590008B4
:10597000AD590008BB590008BB6ABA68143253F825
:1059800022207B6842EA0301BB6ABA68143243F8FA
:10599000221032E0BB6ABA68143253F82230591C24
:1059A000BB6ABA68143243F8221026E0BB6ABA68B0
:1059B0001432796843F822101FE097F82730022B41
:1059C00006D0BB6ABA681432796843F8221014E032
:1059D0000023FB6211E02B4B1B68002B0CD04FF017
:1059E000500383F31188BFF36F8FBFF34F8FBB61F9
:1059F00000BFFEE700BF00E000BF97F82730012B93
:105A000039D1BB6A04331846FEF7AEFABB6ADB6ACB
:105A100001229A401C4B1B6813431B4A1360BB6A4C
:105A2000DA6A13469B0013449B00184A1A44BB6A67
:105A3000043319461046FEF73AFABB6A9B6A002BFC
:105A40000AD04FF0500383F31188BFF36F8FBFF379
:105A50004F8F7B6100BFFEE7BB6ADA6A0C4B1B68A5
:105A6000DB6A9A4207D90B4B4FF080521A60BFF3A2
:105A70004F8FBFF36F8F00F0CFFDFB6A18463037B2
:105A8000BD4680BD14010020180100203C0000200C
:105A90003800002004ED00E080B590B000AFF86061
:105AA000B9607A60FB700123FB63FB68002B0AD1AD
:105AB0004FF0500383F31188BFF36F8FBFF34F8F05
:105AC000FB6200BFFEE7BB68002B0AD04FF050031B
:105AD00083F31188BFF36F8FBFF34F8FBB6200BF9B
